{
  "_format": "hh-sol-artifact-1",
  "contractName": "TestToken",
  "sourceName": "contracts/TestToken.sol",
  "abi": [
    {
      "inputs": [
        {
          "internalType": "string",
          "name": "name",
          "type": "string"
        },
        {
          "internalType": "string",
          "name": "symbol",
          "type": "string"
        },
        {
          "internalType": "uint8",
          "name": "decimalsValue",
          "type": "uint8"
        },
        {
          "internalType": "address",
          "name": "initialOwner",
          "type": "address"
        }
      ],
      "stateMutability": "nonpayable",
      "type": "constructor"
    },
    {
      "inputs": [
        {
          "internalType": "address",
          "name": "spender",
          "type": "address"
        },
        {
          "internalType": "uint256",
          "name": "allowance",
          "type": "uint256"
        },
        {
          "internalType": "uint256",
          "name": "needed",
          "type": "uint256"
        }
      ],
      "name": "ERC20InsufficientAllowance",
      "type": "error"
    },
    {
      "inputs": [
        {
          "internalType": "address",
          "name": "sender",
          "type": "address"
        },
        {
          "internalType": "uint256",
          "name": "balance",
          "type": "uint256"
        },
        {
          "internalType": "uint256",
          "name": "needed",
          "type": "uint256"
        }
      ],
      "name": "ERC20InsufficientBalance",
      "type": "error"
    },
    {
      "inputs": [
        {
          "internalType": "address",
          "name": "approver",
          "type": "address"
        }
      ],
      "name": "ERC20InvalidApprover",
      "type": "error"
    },
    {
      "inputs": [
        {
          "internalType": "address",
          "name": "receiver",
          "type": "address"
        }
      ],
      "name": "ERC20InvalidReceiver",
      "type": "error"
    },
    {
      "inputs": [
        {
          "internalType": "address",
          "name": "sender",
          "type": "address"
        }
      ],
      "name": "ERC20InvalidSender",
      "type": "error"
    },
    {
      "inputs": [
        {
          "internalType": "address",
          "name": "spender",
          "type": "address"
        }
      ],
      "name": "ERC20InvalidSpender",
      "type": "error"
    },
    {
      "inputs": [
        {
          "internalType": "address",
          "name": "owner",
          "type": "address"
        }
      ],
      "name": "OwnableInvalidOwner",
      "type": "error"
    },
    {
      "inputs": [
        {
          "internalType": "address",
          "name": "account",
          "type": "address"
        }
      ],
      "name": "OwnableUnauthorizedAccount",
      "type": "error"
    },
    {
      "anonymous": false,
      "inputs": [
        {
          "indexed": true,
          "internalType": "address",
          "name": "owner",
          "type": "address"
        },
        {
          "indexed": true,
          "internalType": "address",
          "name": "spender",
          "type": "address"
        },
        {
          "indexed": false,
          "internalType": "uint256",
          "name": "value",
          "type": "uint256"
        }
      ],
      "name": "Approval",
      "type": "event"
    },
    {
      "anonymous": false,
      "inputs": [
        {
          "indexed": true,
          "internalType": "address",
          "name": "previousOwner",
          "type": "address"
        },
        {
          "indexed": true,
          "internalType": "address",
          "name": "newOwner",
          "type": "address"
        }
      ],
      "name": "OwnershipTransferred",
      "type": "event"
    },
    {
      "anonymous": false,
      "inputs": [
        {
          "indexed": true,
          "internalType": "address",
          "name": "from",
          "type": "address"
        },
        {
          "indexed": true,
          "internalType": "address",
          "name": "to",
          "type": "address"
        },
        {
          "indexed": false,
          "internalType": "uint256",
          "name": "value",
          "type": "uint256"
        }
      ],
      "name": "Transfer",
      "type": "event"
    },
    {
      "inputs": [
        {
          "internalType": "address",
          "name": "owner",
          "type": "address"
        },
        {
          "internalType": "address",
          "name": "spender",
          "type": "address"
        }
      ],
      "name": "allowance",
      "outputs": [
        {
          "internalType": "uint256",
          "name": "",
          "type": "uint256"
        }
      ],
      "stateMutability": "view",
      "type": "function"
    },
    {
      "inputs": [
        {
          "internalType": "address",
          "name": "spender",
          "type": "address"
        },
        {
          "internalType": "uint256",
          "name": "value",
          "type": "uint256"
        }
      ],
      "name": "approve",
      "outputs": [
        {
          "internalType": "bool",
          "name": "",
          "type": "bool"
        }
      ],
      "stateMutability": "nonpayable",
      "type": "function"
    },
    {
      "inputs": [
        {
          "internalType": "address",
          "name": "account",
          "type": "address"
        }
      ],
      "name": "balanceOf",
      "outputs": [
        {
          "internalType": "uint256",
          "name": "",
          "type": "uint256"
        }
      ],
      "stateMutability": "view",
      "type": "function"
    },
    {
      "inputs": [],
      "name": "decimals",
      "outputs": [
        {
          "internalType": "uint8",
          "name": "",
          "type": "uint8"
        }
      ],
      "stateMutability": "view",
      "type": "function"
    },
    {
      "inputs": [
        {
          "internalType": "address",
          "name": "",
          "type": "address"
        }
      ],
      "name": "lastMintTime",
      "outputs": [
        {
          "internalType": "uint256",
          "name": "",
          "type": "uint256"
        }
      ],
      "stateMutability": "view",
      "type": "function"
    },
    {
      "inputs": [
        {
          "internalType": "address",
          "name": "to",
          "type": "address"
        },
        {
          "internalType": "uint256",
          "name": "amount",
          "type": "uint256"
        }
      ],
      "name": "mint",
      "outputs": [
        {
          "internalType": "bool",
          "name": "",
          "type": "bool"
        }
      ],
      "stateMutability": "nonpayable",
      "type": "function"
    },
    {
      "inputs": [],
      "name": "mintCooldown",
      "outputs": [
        {
          "internalType": "uint256",
          "name": "",
          "type": "uint256"
        }
      ],
      "stateMutability": "view",
      "type": "function"
    },
    {
      "inputs": [],
      "name": "mintLimit",
      "outputs": [
        {
          "internalType": "uint256",
          "name": "",
          "type": "uint256"
        }
      ],
      "stateMutability": "view",
      "type": "function"
    },
    {
      "inputs": [],
      "name": "name",
      "outputs": [
        {
          "internalType": "string",
          "name": "",
          "type": "string"
        }
      ],
      "stateMutability": "view",
      "type": "function"
    },
    {
      "inputs": [],
      "name": "owner",
      "outputs": [
        {
          "internalType": "address",
          "name": "",
          "type": "address"
        }
      ],
      "stateMutability": "view",
      "type": "function"
    },
    {
      "inputs": [
        {
          "internalType": "address",
          "name": "to",
          "type": "address"
        },
        {
          "internalType": "uint256",
          "name": "amount",
          "type": "uint256"
        }
      ],
      "name": "ownerMint",
      "outputs": [],
      "stateMutability": "nonpayable",
      "type": "function"
    },
    {
      "inputs": [],
      "name": "renounceOwnership",
      "outputs": [],
      "stateMutability": "nonpayable",
      "type": "function"
    },
    {
      "inputs": [
        {
          "internalType": "uint256",
          "name": "newCooldown",
          "type": "uint256"
        }
      ],
      "name": "setMintCooldown",
      "outputs": [],
      "stateMutability": "nonpayable",
      "type": "function"
    },
    {
      "inputs": [
        {
          "internalType": "uint256",
          "name": "newLimit",
          "type": "uint256"
        }
      ],
      "name": "setMintLimit",
      "outputs": [],
      "stateMutability": "nonpayable",
      "type": "function"
    },
    {
      "inputs": [],
      "name": "symbol",
      "outputs": [
        {
          "internalType": "string",
          "name": "",
          "type": "string"
        }
      ],
      "stateMutability": "view",
      "type": "function"
    },
    {
      "inputs": [],
      "name": "totalSupply",
      "outputs": [
        {
          "internalType": "uint256",
          "name": "",
          "type": "uint256"
        }
      ],
      "stateMutability": "view",
      "type": "function"
    },
    {
      "inputs": [
        {
          "internalType": "address",
          "name": "to",
          "type": "address"
        },
        {
          "internalType": "uint256",
          "name": "value",
          "type": "uint256"
        }
      ],
      "name": "transfer",
      "outputs": [
        {
          "internalType": "bool",
          "name": "",
          "type": "bool"
        }
      ],
      "stateMutability": "nonpayable",
      "type": "function"
    },
    {
      "inputs": [
        {
          "internalType": "address",
          "name": "from",
          "type": "address"
        },
        {
          "internalType": "address",
          "name": "to",
          "type": "address"
        },
        {
          "internalType": "uint256",
          "name": "value",
          "type": "uint256"
        }
      ],
      "name": "transferFrom",
      "outputs": [
        {
          "internalType": "bool",
          "name": "",
          "type": "bool"
        }
      ],
      "stateMutability": "nonpayable",
      "type": "function"
    },
    {
      "inputs": [
        {
          "internalType": "address",
          "name": "newOwner",
          "type": "address"
        }
      ],
      "name": "transferOwnership",
      "outputs": [],
      "stateMutability": "nonpayable",
      "type": "function"
    }
  ],
  "bytecode": "0x6080604052683635c9adc5dea00000600655610e106008553480156200002457600080fd5b5060405162000ecd38038062000ecd8339810160408190526200004791620001e4565b808484600362000058838262000317565b50600462000067828262000317565b5050506001600160a01b0381166200009957604051631e4fbdf760e01b81526000600482015260240160405180910390fd5b620000a481620000cd565b50506005805460ff909216600160a01b0260ff60a01b1990921691909117905550620003e39050565b600580546001600160a01b038381166001600160a01b0319831681179093556040519116919082907f8be0079c531659141344cd1fd0a4f28419497f9722a3daafe3b4186f6b6457e090600090a35050565b634e487b7160e01b600052604160045260246000fd5b600082601f8301126200014757600080fd5b81516001600160401b03808211156200016457620001646200011f565b604051601f8301601f19908116603f011681019082821181831017156200018f576200018f6200011f565b81604052838152602092508683858801011115620001ac57600080fd5b600091505b83821015620001d05785820183015181830184015290820190620001b1565b600093810190920192909252949350505050565b60008060008060808587031215620001fb57600080fd5b84516001600160401b03808211156200021357600080fd5b620002218883890162000135565b955060208701519150808211156200023857600080fd5b50620002478782880162000135565b935050604085015160ff811681146200025f57600080fd5b60608601519092506001600160a01b03811681146200027d57600080fd5b939692955090935050565b600181811c908216806200029d57607f821691505b602082108103620002be57634e487b7160e01b600052602260045260246000fd5b50919050565b601f8211156200031257600081815260208120601f850160051c81016020861015620002ed5750805b601f850160051c820191505b818110156200030e57828155600101620002f9565b5050505b505050565b81516001600160401b038111156200033357620003336200011f565b6200034b8162000344845462000288565b84620002c4565b602080601f8311600181146200038357600084156200036a5750858301515b600019600386901b1c1916600185901b1785556200030e565b600085815260208120601f198616915b82811015620003b45788860151825594840194600190910190840162000393565b5085821015620003d35787850151600019600388901b60f8161c191681555b5050505050600190811b01905550565b610ada80620003f36000396000f3fe608060405234801561001057600080fd5b50600436106101215760003560e01c80636aa71d18116100ad578063996517cf11610071578063996517cf146102635780639e6a1d7d1461026c578063a9059cbb1461027f578063dd62ed3e14610292578063f2fde38b146102cb57600080fd5b80636aa71d18146101ef57806370a082311461020f578063715018a6146102385780638da5cb5b1461024057806395d89b411461025b57600080fd5b806323b872dd116100f457806323b872dd14610182578063313ce56714610195578063344a681e146101b457806340c10f19146101c9578063484b973c146101dc57600080fd5b806306fdde0314610126578063095ea7b31461014457806318160ddd146101675780632000d43014610179575b600080fd5b61012e6102de565b60405161013b919061090b565b60405180910390f35b610157610152366004610975565b610370565b604051901515815260200161013b565b6002545b60405190815260200161013b565b61016b60085481565b61015761019036600461099f565b61038a565b600554600160a01b900460ff1660405160ff909116815260200161013b565b6101c76101c23660046109db565b6103ae565b005b6101576101d7366004610975565b6103bb565b6101c76101ea366004610975565b6104d5565b61016b6101fd3660046109f4565b60076020526000908152604090205481565b61016b61021d3660046109f4565b6001600160a01b031660009081526020819052604090205490565b6101c76104eb565b6005546040516001600160a01b03909116815260200161013b565b61012e6104ff565b61016b60065481565b6101c761027a3660046109db565b61050e565b61015761028d366004610975565b61051b565b61016b6102a0366004610a16565b6001600160a01b03918216600090815260016020908152604080832093909416825291909152205490565b6101c76102d93660046109f4565b610529565b6060600380546102ed90610a49565b80601f016020809104026020016040519081016040528092919081815260200182805461031990610a49565b80156103665780601f1061033b57610100808354040283529160200191610366565b820191906000526020600020905b81548152906001019060200180831161034957829003601f168201915b5050505050905090565b60003361037e818585610567565b60019150505b92915050565b600033610398858285610579565b6103a38585856105f8565b506001949350505050565b6103b6610657565b600855565b60006006548211156104145760405162461bcd60e51b815260206004820152601960248201527f416d6f756e742065786365656473206d696e74206c696d69740000000000000060448201526064015b60405180910390fd5b6008546001600160a01b03841660009081526007602052604090205461043a9190610a83565b4210158061045e57506001600160a01b038316600090815260076020526040902054155b6104aa5760405162461bcd60e51b815260206004820152601a60248201527f436f6f6c646f776e20706572696f64206e6f7420706173736564000000000000604482015260640161040b565b6104b48383610684565b50506001600160a01b03166000908152600760205260409020429055600190565b6104dd610657565b6104e78282610684565b5050565b6104f3610657565b6104fd60006106ba565b565b6060600480546102ed90610a49565b610516610657565b600655565b60003361037e8185856105f8565b610531610657565b6001600160a01b03811661055b57604051631e4fbdf760e01b81526000600482015260240161040b565b610564816106ba565b50565b610574838383600161070c565b505050565b6001600160a01b038381166000908152600160209081526040808320938616835292905220546000198110156105f257818110156105e357604051637dc7a0d960e11b81526001600160a01b0384166004820152602481018290526044810183905260640161040b565b6105f28484848403600061070c565b50505050565b6001600160a01b03831661062257604051634b637e8f60e11b81526000600482015260240161040b565b6001600160a01b03821661064c5760405163ec442f0560e01b81526000600482015260240161040b565b6105748383836107e1565b6005546001600160a01b031633146104fd5760405163118cdaa760e01b815233600482015260240161040b565b6001600160a01b0382166106ae5760405163ec442f0560e01b81526000600482015260240161040b565b6104e7600083836107e1565b600580546001600160a01b038381166001600160a01b0319831681179093556040519116919082907f8be0079c531659141344cd1fd0a4f28419497f9722a3daafe3b4186f6b6457e090600090a35050565b6001600160a01b0384166107365760405163e602df0560e01b81526000600482015260240161040b565b6001600160a01b03831661076057604051634a1406b160e11b81526000600482015260240161040b565b6001600160a01b03808516600090815260016020908152604080832093871683529290522082905580156105f257826001600160a01b0316846001600160a01b03167f8c5be1e5ebec7d5bd14f71427d1e84f3dd0314c0f7b2291e5b200ac8c7c3b925846040516107d391815260200190565b60405180910390a350505050565b6001600160a01b03831661080c5780600260008282546108019190610a83565b9091555061087e9050565b6001600160a01b0383166000908152602081905260409020548181101561085f5760405163391434e360e21b81526001600160a01b0385166004820152602481018290526044810183905260640161040b565b6001600160a01b03841660009081526020819052604090209082900390555b6001600160a01b03821661089a576002805482900390556108b9565b6001600160a01b03821660009081526020819052604090208054820190555b816001600160a01b0316836001600160a01b03167fddf252ad1be2c89b69c2b068fc378daa952ba7f163c4a11628f55a4df523b3ef836040516108fe91815260200190565b60405180910390a3505050565b600060208083528351808285015260005b818110156109385785810183015185820160400152820161091c565b506000604082860101526040601f19601f8301168501019250505092915050565b80356001600160a01b038116811461097057600080fd5b919050565b6000806040838503121561098857600080fd5b61099183610959565b946020939093013593505050565b6000806000606084860312156109b457600080fd5b6109bd84610959565b92506109cb60208501610959565b9150604084013590509250925092565b6000602082840312156109ed57600080fd5b5035919050565b600060208284031215610a0657600080fd5b610a0f82610959565b9392505050565b60008060408385031215610a2957600080fd5b610a3283610959565b9150610a4060208401610959565b90509250929050565b600181811c90821680610a5d57607f821691505b602082108103610a7d57634e487b7160e01b600052602260045260246000fd5b50919050565b8082018082111561038457634e487b7160e01b600052601160045260246000fdfea2646970667358221220b03cddc6c7c0e12b2a8788451201828e90108a7f15ba0c2ad89f22769da42a7664736f6c63430008140033",
  "linkReferences": {},
  "deployedLinkReferences": {}
}